00COTAHIST.2024BOVESPA 20240209                                                                                                                                                                                                                      
012024010202AALR3       010ALLIAR      ON      NM   R$  0000000001020000000000103600000000008500000000000932000000000085}0000000000850000000000085201993000000000000430400000000000401487500000000000000009999123100000010000000000000BRAALRACNOR6102
012024010202ABCB4       010ABC BRASIL  PN  EJS N2   R$  0000000002398000000000239800000000022790000000002311000000000228{0000000002288000000000228908964000000000001944700000000004494730800000000000000009999123100000010000000000000BRABCBACNPR4145
012024010202ABEV3       010AMBEV S/A   ON  EJ       R$  0000000001372000000000137300000000013590000000001367000000000137J0000000001370000000000137116587000000000011690200000000015983911100000000000000009999123100000010000000000000BRABEVACNOR1127
012024010202BBDC3       010BRADESCO    ON  EJ  N1   R$  0000000001526000000000152600000000014980000000001508000000000151A0000000001508000000000151206674000000000004545600000000006857685400000000000000009999123100000010000000000000BRBBDCACNOR1764
012024010202ALPA3       010ALPARGATAS  ON      N1   R$  0000000001011000000000103000000000009990000000001004000000000100K0000000000972000000000105600020000000000000002900000000000002912000000000000000009999123100000010000000000000BRALPAACNOR0231
012024010202ALPA4       010ALPARGATAS  PN      N1   R$  0000000001010000000000101200000000009310000000000971000000000093B0000000000931000000000093214280000000000006907000000000006713502800000000000000009999123100000010000000000000BRALPAACNPR7232
012024010202ALPK3       010ESTAPAR     ON      NM   R$  0000000000492000000000049700000000004470000000000460000000000046L0000000000455000000000046600982000000000000234900000000000108194400000000000000009999123100000010000000000000BRALPKACNOR9101
012024010202ALUP11      010ALUPAR      UNT     N2   R$  0000000003146000000000315600000000030250000000003053000000000304C0000000003043000000000305304451000000000000834400000000002547695200000000000000009999123100000010000000000000BRALUPCDAM15117
012024010202ALUP3       010ALUPAR      ON      N2   R$  0000000001046000000000104600000000010070000000001023000000000101Q0000000001010000000000102500124000000000000014400000000000014731400000000000000009999123100000010000000000000BRALUPACNOR8117
012024010202ALUP4       010ALUPAR      PN      N2   R$  0000000001062000000000106200000000010000000000001023000000000100R0000000001000000000000102700211000000000000032200000000000032965200000000000000009999123100000010000000000000BRALUPACNPR5117
012024010202AMAR3       010LOJAS MARISAON      NM   R$  0000000000363000000000037100000000003450000000000354000000000034K0000000000348000000000035001652000000000000965800000000000342819000000000000000009999123100000010000000000000BRAMARACNOR4114
012024010202AMBP3       010AMBIPAR     ON      NM   R$  0000000001617000000000162900000000015510000000001583000000000155K0000000001558000000000155907292000000000001379300000000002183818700000000000000009999123100000010000000000000BRAMBPACNOR6103
012024010202RCSL3       010RECRUSUL    ON           R$  0000000000243000000000027300000000002380000000000254000000000024K0000000000248000000000025104051000000000004944100000000001260670600000000000000009999123100000010000000000000BRRCSLACNOR4133
012024010202RCSL4       010RECRUSUL    PN           R$  0000000000088000000000008800000000000860000000000087000000000008K0000000000086000000000008701555000000000002908500000000000253074400000000000000009999123100000010000000000000BRRCSLACNPR1133
012024010202RDNI3       010RNI         ON      NM   R$  0000000000469000000000047200000000004500000000000462000000000046K0000000000456000000000046400065000000000000026700000000000012335700000000000000009999123100000010000000000000BRRDNIACNOR9116
012024010202RDOR3       010REDE D OR   ON  EJ  NM   R$  0000000002811000000000283600000000027580000000002780000000000277K0000000002773000000000277614625000000000004877200000000013560946000000000000000009999123100000010000000000000BRRDORACNOR8111
012024010202TASA4       010TAURUS ARMASPN      N2   R$  0000000001520000000000152300000000014700000000001495000000000147K0000000001474000000000147903519000000000000547700000000000818814000000000000000009999123100000010000000000000BRTASAACNPR4103
012024010202TCSA3       010TECNISA     ON      NM   R$  0000000000398000000000040000000000003820000000000389000000000039K0000000000387000000000039200289000000000000112500000000000043829100000000000000009999123100000010000000000000BRTCSAACNOR3112
012024010202TECN3       010TECHNOS     ON      NM   R$  0000000000352000000000036500000000003500000000000358000000000036K0000000000361000000000036301150000000000000334800000000000119979300000000000000009999123100000010000000000000BRTECNACNOR6108
012024010202TELB3       010TELEBRAS    ON           R$  0000000001575000000000157500000000015420000000001554000000000154K0000000001540000000000157500004000000000000000500000000000000777000000000000000009999123100000010000000000000BRTELBACNOR2140
012024010202TELB4       010TELEBRAS    PN           R$  0000000001291000000000129600000000012300000000001258000000000123K0000000001222000000000125900029000000000000010700000000000013468200000000000000009999123100000010000000000000BRTELBACNPR9140
012024010202TRAD3       010TC          ON      NM   R$  0000000000087000000000008700000000000830000000000084000000000008K0000000000084000000000008600632000000000000642700000000000054519600000000000000009999123100000010000000000000BRTRADACNOR3101
012024010202TRIS3       010TRISUL      ON      NM   R$  0000000000575000000000057500000000005450000000000557000000000054K0000000000548000000000054904444000000000001668800000000000930986600000000000000009999123100000010000000000000BRTRISACNOR4116
012024010202TRPL3       010TRAN PAULISTON      N1   R$  0000000003514000000000360000000000035140000000003562000000000358K0000000003548000000000360000008000000000000000800000000000002850100000000000000009999123100000010000000000000BRTRPLACNOR4185
012024010202TRPL4       010TRAN PAULISTPN      N1   R$  0000000002638000000000266800000000025980000000002619000000000262K0000000002618000000000262013568000000000002271400000000005948863600000000000000009999123100000010000000000000BRTRPLACNPR1185
012024010202VLID3       010VALID       ON      NM   R$  0000000002079000000000210200000000020470000000002066000000000206K0000000002055000000000206004417000000000000684400000000001414316800000000000000009999123100000010000000000000BRVLIDACNOR5141
012024010202BMEB3       010MERCANTIL   ON  EJ  N1   R$  0000000002022000000000202200000000020180000000002020000000000202K0000000001800000000000204000004000000000000000600000000000001212400000000000000009999123100000010000000000000BRBMEBACNOR8205
012024010202BMEB4       010MERCANTIL   PN  EJ  N1   R$  0000000001700000000000170500000000016500000000001690000000000165K0000000001604000000000168000043000000000000014600000000000024678400000000000000009999123100000010000000000000BRBMEBACNPR5210
012024010202BMGB4       010BANCO BMG   PN  EJ  N1   R$  0000000000325000000000032600000000003120000000000318000000000031K0000000000313000000000031601734000000000001023500000000000326116700000000000000009999123100000010000000000000BRBMGBACNPR0108
012024010202BMKS3       010BIC MONARK  ON           R$  0000000035998000000003599800000000350970000000035971000000003599K0000000035000000000003599700011000000000000000050000000000001798580000000000000009999123100000010000000000000BRBMKSACNOR9165
012024010202BMOB3       010BEMOBI TECH ON  EJ  NM   R$  0000000001401000000000140400000000013420000000001360000000000136K0000000001361000000000136502868000000000000432700000000000588503400000000000000009999123100000010000000000000BRBMOBACNOR7103
012024010202BNBR3       010NORD BRASIL ON           R$  0000000011200000000001120000000000112000000000011200000000001120K0000000010950000000001145000001000000000000000100000000000001120000000000000000009999123100000010000000000000BRBNBRACNOR8206
012024010202BOBR4       010BOMBRIL     PN           R$  0000000000204000000000020500000000002000000000000202000000000020K0000000000200000000000020200057000000000000041600000000000008412600000000000000009999123100000010000000000000BRBOBRACNPR3128
012024010202CCRO3       010CCR SA      ON      NM   R$  0000000001407000000000141300000000013820000000001395000000000139K0000000001396000000000140012825000000000004084400000000005701013600000000000000009999123100000010000000000000BRCCROACNOR2144
012024010202BRAP4       010BRADESPAR   PN      N1   R$  0000000002571000000000258400000000025310000000002559000000000254K0000000002541000000000254408865000000000003148900000000008059346800000000000000009999123100000010000000000000BRBRAPACNPR2147
012024010202EPAR3       010EMBPAR S/A  ON  EDC      R$  0000000001180000000000118000000000010780000000001116000000000108K0000000001080000000000109200173000000000000041000000000000045782000000000000000009999123100000010000000000000BREPARACNOR9104
012024010202EQMA3B      010EQTLMARANHAOON      MB   R$  0000000002979000000000298000000000029500000000002969000000000295K0000000002907000000000297000003000000000000000600000000000001781800000000000000009999123100000010000000000000BREQMAACNOR8107
012024010202EQPA3       010EQTL PARA   ON           R$  0000000000762000000000076300000000007480000000000760000000000076K0000000000755000000000076500009000000000000003000000000000002281000000000000000009999123100000010000000000000BREQPAACNOR1109
012024010202EQTL3       010EQUATORIAL  ON      NM   R$  0000000003572000000000358200000000034860000000003512000000000350K0000000003500000000000350216035000000000004762600000000016727575300000000000000009999123100000010000000000000BREQTLACNOR0129
012024010202ESPA3       010ESPACOLASER ON      NM   R$  0000000000123000000000012400000000001140000000000118000000000011K0000000000114000000000011503801000000000002244800000000000265225600000000000000009999123100000010000000000000BRESPAACNOR7103
012024010202ESTR4       010ESTRELA     PN           R$  0000000000402000000000041800000000004000000000000401000000000041K0000000000400000000000041700006000000000000002600000000000001043800000000000000009999123100000010000000000000BRESTRACNPR0144
012024010202EUCA3       010EUCATEX     ON  EJ  N1   R$  0000000001606000000000165200000000016050000000001620000000000165K0000000001610000000000165000010000000000000001100000000000001782900000000000000009999123100000010000000000000BREUCAACNOR1157
012024010202CRFB3       010CARREFOUR BRON      NM   R$  0000000001232000000000124400000000011920000000001206000000000120K0000000001200000000000120213862000000000004574900000000005519152100000000000000009999123100000010000000000000BRCRFBACNOR2116
012024010202CRIV3       010ALFA FINANC ON           R$  0000000000589000000000058900000000005890000000000589000000000058K0000000000589000000000059000002000000000000000400000000000000235600000000000000009999123100000010000000000000BRCRIVACNOR4195
012024010202CRIV4       010ALFA FINANC PN           R$  0000000000574000000000058900000000005740000000000574000000000058K0000000000583000000000058800025000000000000102400000000000058806000000000000000009999123100000010000000000000BRCRIVACNPR1210
012024010202CRPG5       010CRISTAL     PNA          R$  0000000003785000000000378500000000036660000000003714000000000372K0000000003673000000000374900029000000000000003000000000000011143600000000000000009999123100000010000000000000BRCRPGACNPA3118
012024010202CRPG6       010CRISTAL     PNB          R$  0000000003582000000000368000000000035510000000003664000000000361K0000000003610000000000368000025000000000000005600000000000020520300000000000000009999123100000010000000000000BRCRPGACNPB1118
012024010202CSAN3       010COSAN       ON      NM   R$  0000000001938000000000194800000000019050000000001924000000000192K0000000001919000000000192212946000000000005096300000000009807304100000000000000009999123100000010000000000000BRCSANACNOR6124
012024010202CSED3       010CRUZEIRO EDUON      NM   R$  0000000000532000000000053200000000005140000000000520000000000051K0000000000515000000000051602267000000000000403200000000000209984200000000000000009999123100000010000000000000BRCSEDACNOR9104
012024010202ENGI11      010ENERGISA    UNT ED  N2   R$  0000000005289000000000534600000000051900000000005230000000000521K0000000005218000000000521907514000000000002244300000000011737707500000000000000009999123100000010000000000000BRENGICDAM16135
012024010202ENGI3       010ENERGISA    ON  ED  N2   R$  0000000001859000000000186000000000017720000000001826000000000178K0000000001788000000000180000056000000000000006400000000000011686600000000000000009999123100000010000000000000BRENGIACNOR0145
012024010202ENGI4       010ENERGISA    PN  ED  N2   R$  0000000000880000000000088000000000008400000000000860000000000085K0000000000851000000000087500085000000000000024200000000000020829800000000000000009999123100000010000000000000BRENGIACNPR7141
012024010202ENJU3       010ENJOEI      ON      NM   R$  0000000000165000000000016900000000001600000000000163000000000016K0000000000162000000000016300970000000000000609000000000000099465900000000000000009999123100000010000000000000BRENJUACNOR9100
012024010202MDIA3       010M.DIASBRANCOON  EJ  NM   R$  0000000003863000000000386300000000037450000000003781000000000377K0000000003776000000000377703688000000000000570900000000002158967500000000000000009999123100000010000000000000BRMDIAACNOR7133
012024010202MDNE3       010MOURA DUBEUXON      NM   R$  0000000001333000000000133300000000012720000000001295000000000128K0000000001282000000000128503359000000000000730100000000000945996900000000000000009999123100000010000000000000BRMDNEACNOR9100
012024010202MEAL3       010IMC S/A     ON      NM   R$  0000000000197000000000019700000000001860000000000190000000000018K0000000000187000000000018803014000000000002606900000000000495482100000000000000009999123100000010000000000000BRMEALACNOR9105
012024010202MELK3       010MELNICK     ON      NM   R$  0000000000479000000000048900000000004620000000000474000000000047K0000000000471000000000047901070000000000000307900000000000146208700000000000000009999123100000010000000000000BRMELKACNOR8110
012024010202MGEL4       010MANGELS INDLPN           R$  0000000001336000000000134900000000013320000000001337000000000134K0000000001330000000000135000009000000000000002000000000000002674800000000000000009999123100000010000000000000BRMGELACNPR3147
012024010202MGLU3       010MAGAZ LUIZA ON      NM   R$  0000000000214000000000021500000000002030000000000208000000000020K0000000000205000000000020633273000000000115658000000000024097595400000000000000009999123100000010000000000000BRMGLUACNOR2121
012024010202PDGR3       010PDG REALT   ON      NM   R$  0000000000045000000000004500000000000420000000000043000000000004K0000000000042000000000004301271000000000005670800000000000245205700000000000000009999123100000010000000000000BRPDGRACNOR8118
012024010202PDTC3       010PADTEC      ON      NM   R$  0000000000310000000000031800000000003050000000000311000000000031K0000000000314000000000031700147000000000000080800000000000025205100000000000000009999123100000010000000000000BRPDTCACNOR3100
012024010202PETR3       010PETROBRAS   ON      N2   R$  0000000003900000000000396300000000039000000000003934000000000393K0000000003932000000000393712464000000000006743900000000026530605100000000000000009999123100000010000000000000BRPETRACNOR9202
012024010202PETR4       010PETROBRAS   PN      N2   R$  0000000003744000000000378900000000037400000000003766000000000377K0000000003775000000000377839280000000000024043800000000090551383800000000000000009999123100000010000000000000BRPETRACNPR6209
012024010202AERI3       010AERIS       ON      NM   R$  0000000000091000000000009100000000000860000000000087000000000008K0000000000086000000000008713099000000000007195300000000000631663900000000000000009999123100000010000000000000BRAERIACNOR4101
012024010202AESB3       010AES BRASIL  ON      NM   R$  0000000001232000000000123200000000011880000000001198000000000119K0000000001194000000000119713063000000000003543200000000004244939200000000000000009999123100000010000000000000BRAESBACNOR7105
012024010202AFLT3       010AFLUENTE T  ON           R$  0000000000811000000000084500000000007800000000000814000000000084K0000000000811000000000084700023000000000000003800000000000003096300000000000000009999123100000010000000000000BRAFLTACNOR1120
012024010202AGRO3       010BRASILAGRO  ON      NM   R$  0000000002658000000000266200000000025930000000002610000000000260K0000000002603000000000260603367000000000000492200000000001284964800000000000000009999123100000010000000000000BRAGROACNOR7114
012024010202AGXY3       010AGROGALAXY  ON      NM   R$  0000000000364000000000036400000000003430000000000354000000000034K0000000000343000000000035300366000000000000113500000000000040188200000000000000009999123100000010000000000000BRAGXYACNOR4102
012024010202ALLD3       010ALLIED      ON  EJ  NM   R$  0000000000749000000000075400000000007330000000000740000000000074K0000000000738000000000074100120000000000000038600000000000028582000000000000000009999123100000010000000000000BRALLDACNOR3105
012024010202ALOS3       010ALLOS       ON      NM   R$  0000000002651000000000265100000000025560000000002584000000000257K0000000002574000000000257523461000000000006747600000000017437771800000000000000009999123100000010000000000000BRALOSACNOR5100
012024010202BBDC4       010BRADESCO    PN  EJ  N1   R$  0000000001695000000000170100000000016670000000001679000000000167K0000000001674000000000167636017000000000031715700000000053255341200000000000000009999123100000010000000000000BRBBDCACNPR8764
012024010202CMIN3       010CSNMINERACAOON  EJ  N2   R$  0000000000780000000000079600000000007750000000000786000000000078K0000000000788000000000078913112000000000007861400000000006180905400000000000000009999123100000010000000000000BRCMINACNOR2110
012024010202COCE5       010COELCE      PNA          R$  0000000004255000000000426100000000041530000000004187000000000416K0000000004162000000000417900248000000000000034500000000000144477800000000000000009999123100000010000000000000BRCOCEACNPA3146
012024010202COGN3       010COGNA ON    ON      NM   R$  0000000000348000000000034800000000003360000000000340000000000033K0000000000336000000000033922956000000000024095200000000008201797700000000000000009999123100000010000000000000BRCOGNACNOR2104
012024010202DMVF3       010D1000VFARMA ON      NM   R$  0000000000584000000000059100000000005510000000000569000000000056K0000000000566000000000057300212000000000000048600000000000027680700000000000000009999123100000010000000000000BRDMVFACNOR9100
012024010202DOHL4       010DOHLER      PN           R$  0000000000514000000000052400000000005090000000000515000000000051K0000000000505000000000051900005000000000000000500000000000000257500000000000000009999123100000010000000000000BRDOHLACNPR9066
012024010202DOTZ3       010DOTZ SA     ON  EG  NM   R$  0000000000780000000000079900000000007660000000000776000000000078K0000000000767000000000078000024000000000000005900000000000004582600000000000000009999123100000010000000000000BRDOTZACNOR7101
012024010202DTCY3       010DTCOM-DIRECTON           R$  0000000000450000000000045000000000004500000000000450000000000045K0000000000440000000000045100001000000000000000300000000000000135000000000000000009999123100000010000000000000BRDTCYACNOR5109
012024010202DXCO3       010DEXCO       ON  EJ  NM   R$  0000000000800000000000080600000000007730000000000784000000000077K0000000000777000000000077813641000000000003588600000000002814639600000000000000009999123100000010000000000000BRDXCOACNOR8104
012024010202BSLI3       010BRB BANCO   ON           R$  0000000001239000000000133200000000012390000000001265000000000133K0000000001279000000000133200005000000000000000700000000000000885700000000000000009999123100000010000000000000BRBSLIACNOR5192
012024010202BSLI4       010BRB BANCO   PN           R$  0000000001186000000000122900000000011860000000001207000000000122K0000000001186000000000122900002000000000000000200000000000000241500000000000000009999123100000010000000000000BRBSLIACNPR2192
012024010202CAMB3       010CAMBUCI     ON           R$  0000000001074000000000109200000000009930000000001009000000000100K0000000001001000000000100600612000000000000560100000000000565289300000000000000009999123100000010000000000000BRCAMBACNOR4127
012024010202CAML3       010CAMIL       ON      NM   R$  0000000000845000000000084500000000007780000000000796000000000078K0000000000788000000000079505004000000000001947800000000001550489600000000000000009999123100000010000000000000BRCAMLACNOR3126
012024010202CASH3       010MELIUZ      ON      NM   R$  0000000000793000000000079700000000007640000000000777000000000076K0000000000768000000000077003699000000000001570400000000001220248100000000000000009999123100000010000000000000BRCASHACNOR8105
012024010202CBAV3       010CBA         ON      NM   R$  0000000000506000000000052000000000004980000000000509000000000050K0000000000503000000000050407648000000000003988500000000002031835300000000000000009999123100000010000000000000BRCBAVACNOR5104
012024010202CBEE3       010AMPLA ENERG ON           R$  0000000001480000000000148000000000014800000000001480000000000148K0000000001300000000000148000001000000000000000100000000000000148000000000000000009999123100000010000000000000BRCBEEACNOR3159
012024010202CTSA3       010SANTANENSE  ON           R$  0000000000539000000000053900000000004790000000000493000000000047K0000000000479000000000048000143000000000000033300000000000016436000000000000000009999123100000010000000000000BRCTSAACNOR3062
012024010202CTSA4       010SANTANENSE  PN           R$  0000000000223000000000022800000000002080000000000215000000000020K0000000000209000000000021300321000000000000084400000000000018219700000000000000009999123100000010000000000000BRCTSAACNPR0062
012024010202CURY3       010CURY S/A    ON      NM   R$  0000000001781000000000180900000000017540000000001779000000000175K0000000001754000000000176608203000000000002066400000000003676915700000000000000009999123100000010000000000000BRCURYACNOR3107
012024010202CVCB3       010CVC BRASIL  ON      NM   R$  0000000000350000000000035200000000003260000000000335000000000032K0000000000328000000000032929957000000000039062900000000013123514800000000000000009999123100000010000000000000BRCVCBACNOR1115
012024010202CXSE3       010CAIXA SEGURION      NM   R$  0000000001290000000000129700000000012800000000001287000000000128K0000000001280000000000128307180000000000002156900000000002777285500000000000000009999123100000010000000000000BRCXSEACNOR7105
012024010202GGPS3       010GPS         ON      NM   R$  0000000001885000000000189500000000018120000000001835000000000183K0000000001831000000000183511528000000000002468900000000004532036900000000000000009999123100000010000000000000BRGGPSACNOR9102
012024010202GMAT3       010GRUPO MATEUSON      NM   R$  0000000000713000000000071300000000006870000000000695000000000068K0000000000689000000000069007956000000000003178000000000002210109700000000000000009999123100000010000000000000BRGMATACNOR7100
012024010202GOAU3       010GERDAU MET  ON      N1   R$  0000000001115000000000111800000000011000000000001108000000000110K0000000001100000000000110200361000000000000072100000000000079922900000000000000009999123100000010000000000000BRGOAUACNOR1265
012024010202GOAU4       010GERDAU MET  PN      N1   R$  0000000001088000000000109400000000010720000000001082000000000107K0000000001076000000000107814892000000000008251800000000008930175200000000000000009999123100000010000000000000BRGOAUACNPR8266
012024010202MILS3       010MILLS       ON  EJ  NM   R$  0000000001359000000000136100000000013050000000001325000000000132K0000000001313000000000132304964000000000001055400000000001398677000000000000000009999123100000010000000000000BRMILSACNOR2124
012024010202MLAS3       010MULTILASER  ON      NM   R$  0000000000210000000000021200000000001950000000000201000000000019K0000000000197000000000020011935000000000006153900000000001242578400000000000000009999123100000010000000000000BRMLASACNOR9101
012024010202MNDL3       010MUNDIAL     ON           R$  0000000005247000000000526000000000052470000000005251000000000526K0000000005101000000000526000009000000000000001100000000000005776200000000000000009999123100000010000000000000BRMNDLACNOR4107
012024010202MNPR3       010MINUPAR     ON           R$  0000000001874000000000188500000000018740000000001878000000000188K0000000001743000000000188500005000000000000002000000000000003757400000000000000009999123100000010000000000000BRMNPRACNOR5122
99COTAHIST.2024BOVESPA 2024020900000275028                                                                                                                                                                                                           
